:020000040000FA
:0600000036EF01F01200D2
:020006000000F8
:080008000F0EC16E938093827C
:10001000939493969398939A939C939E819E819C9C
:10002000819A81988180818281968150020B01E0C2
:10003000010E006E8150010B02E0000E01D0010E96
:10004000001403E08186818410D88150010B006E7A
:100050008150020B02E0000E01D0010E001403E0FB
:100060008196819434D8E1D71200819E819C819A37
:10007000819881A22BD0818681848188819A819CFC
:10008000819E0A0EE66EE66A54D8E552E5528198E2
:10009000818A819C819E0A0EE66EE66A4AD8E55204
:1000A000E5528198819A818C819E0A0EE66EE66AFD
:1000B00040D8E552E5528198819A819C818E0A0E42
:1000C000E66EE66A36D8E552E552D3D71200819E35
:1000D000819C819A819881A02BD08196819481986E
:1000E000819A819C818E0A0EE66EE66A22D8E552DC
:1000F000E5528198819A818C819E0A0EE66EE66AAD
:1001000018D8E552E5528198818A819C819E0A0E19
:10011000E66EE66A0ED8E552E5528188819A819CA6
:10012000819E0A0EE66EE66A04D8E552E552D3D700
:100130001200D9CFE6FFE1CFD9FF040EE126DE6A37
:10014000DD6ADECF00F0DDCF01F0FD0EDBCF02F087
:10015000FE0EDBCF03F00250005C035001581DE29D
:10016000020EDB6A030EDB6A020EDBCF00F0030E29
:10017000DBCF01F0D890015004E6FB0E005C040ECA
:10018000015806E2020EDB2A030E01E3DB2AECD75C
:10019000DF2A010E01E3DB2AD4D7040EE15C02E280
:0E01A000E16AE552E16EE552E7CFD9FF1200A9
:0201AE00060E3B
:1001B000F66E000EF76E000EF86E00010900F550A5
:1001C000856F0900F550866F03E1856701D03DD04A
:1001D0000900F550806F0900F550816F0900F55056
:1001E000826F09000900F550E96E0900F550EA6ECA
:1001F000090009000900F550836F0900F550846F6C
:1002000009000900F6CF87F0F7CF88F0F8CF89F022
:1002100080C0F6FF81C0F7FF82C0F8FF0001835362
:1002200002E1845307E00900F550EE6E8307F8E21F
:100230008407F9D787C0F6FF88C0F7FF89C0F8FFA9
:0C02400000018507000E865BBFD712008E
:04024C00000EF36E3F
:1002500000EE00F0060E01D81200EA6002D0EE6A4D
:0C026000FCD7F350E9601200EE6AFCD7F6
:04026C0015EE00F09B
:1002700025EE00F0F86A059CD7EC00F044EC01F0A4
:0802800004EC00F0FBD71200B2
:02028800120062
:020000040030CA
:0100010002FC
:010002001FDE
:010003001EDE
:010006008178
:00000001FF
