:020000040000FA
:06000000F5EF00F0120014
:020006000000F8
:08000800D9CFE6FFE1CFD9FFDB
:100010000C0EE126010EF36E060EF3CFDBFF070E8A
:10002000DB6A040EF36E080EF3CFDBFF090EDB6A0A
:10003000060EF36E0A0EF3CFDBFF0B0EDB6A020E29
:10004000DB6A030EDB6ADE6ADD6ADECF14F0DDCF29
:1000500015F0153404E214500E08000E15542BE36D
:10006000020EDBCF16F0030EDBCF17F0D950060FD0
:10007000186EDACF19F0020E086E096ADECF0DF0A5
:10008000DDCF0EF0B8EC00F018500624E96E1950E0
:100090000720EA6E1650EE24146E1750EE20156EEF
:1000A000020E14C0DBFF030E15C0DBFFDF2A010EBA
:1000B00001E3DB2ACAD7956A020EDB50836E0C0E71
:1000C000E15C02E2E16AE552E16EE552E7CFD9FF79
:0200D00012001C
:0E00D200060EF66E000EF76E000EF86E0001C0
:1000E0000900F550656F0900F550666F03E165671B
:1000F00001D03DD00900F550606F0900F550616FE7
:100100000900F550626F09000900F550E96E090019
:10011000F550EA6E090009000900F550636F090007
:10012000F550646F09000900F6CF67F0F7CF68F06B
:10013000F8CF69F060C0F6FF61C0F7FF62C0F8FF5A
:100140000001635302E1645307E00900F550EE6ECD
:100150006307F8E26407F9D767C0F6FF68C0F7FFE6
:1001600069C0F8FF00016507000E665BBFD712008B
:1001700009C013F008C012F008500D02F4CF07F0C8
:10018000F3CF06F009500E02F4CF09F0F3CF08F0D8
:100190000D02F3500726F4500822E86A0922125093
:1001A0000E02F3500726F4500822E86A09220EAE28
:1001B000DEEF00F01250085E1350095A13AE000C27
:0A01C0000D50085E0E50095A000CA5
:0601CA00000EF36E00EED2
:1001D00000F0080E01D81200EA6002D0EE6AFCD7E7
:0A01E000F350E9601200EE6AFCD74C
:0601EA0013EE00F023EE0D
:1001F00000F0F86A019C69EC00F003EC01F004ECFB
:0602000000F0FBD7120024
:020206001200E4
:00000001FF
