:020000040000FA
:06000000B7EF00F0120052
:020006000000F8
:08000800936A8168640EE66E44
:10001000E66A0BD8E552E552816A640EE66EE66A3E
:1000200004D8E552E552F1D71200D9CFE6FFE1CF6F
:10003000D9FF040EE126DE6ADD6ADECF00F0DDCFF7
:1000400001F0FD0EDBCF02F0FE0EDBCF03F001501E
:100050000318E8AE02D0033404D00250005C035011
:1000600001581CE2620EF36E020EF3CFDBFF030EAB
:10007000DB6AD950020FE96EDACFEAFF010EEE1803
:1000800001E1ED5006E0020EDB06030E01E2DB06A5
:10009000F0D7DF2A010E01E3DB2ACFD7040EE15CA3
:1000A00002E2E16AE552E16EE552E7CFD9FF1200C4
:1000B000060EF66E000EF76E000EF86E00010900D7
:1000C000F550656F0900F550666F03E1656701D073
:1000D0003DD00900F550606F0900F550616F0900CF
:1000E000F550626F09000900F550E96E0900F550FE
:1000F000EA6E090009000900F550636F0900F55028
:10010000646F09000900F6CF67F0F7CF68F0F8CF09
:1001100069F060C0F6FF61C0F7FF62C0F8FF000140
:10012000635302E1645307E00900F550EE6E630784
:10013000F8E26407F9D767C0F6FF68C0F7FF69C047
:0E014000F8FF00016507000E665BBFD71200D6
:02014E00000EA1
:10015000F36E00EE00F0080E01D81200EA6002D043
:0E016000EE6AFCD7F350E9601200EE6AFCD79D
:02016E0013EE8E
:1001700000F023EE00F0F86A059C58EC00F0C5ECA6
:0A01800000F004EC00F0FBD71200C1
:02018A00120061
:00000001FF
