:020000040000FA
:060000008FEF01F0120079
:020006000000F8
:08000800D9CFE6FFE1CFD9FFDB
:100010001A0EE126D9CFE9FFDACFEAFF770EEE6EAE
:10002000650EEE6E6C0EEE6E2D0EEE6E630EEE6EC7
:100030006F0EEE6E6D0EEE6E650EEE6EEE6AD950C0
:10004000090FE96EDACFEAFF530EEE6E450EEE6E43
:10005000200EEE6E490EEE6E540EEE6E200EEE6E1B
:10006000440EEE6E450EEE6E500EEE6E410EEE6ECE
:10007000520EEE6E540EEE6E4D0EEE6E450EEE6EA0
:100080004E0EEE6E540EEE6EEE6A0F0EC16E956A57
:10009000966A5CD8320EE66EE66A1DD8E552E552E5
:1000A000C00EE66E7CD8E552D9CF6AF0DACF6BF09D
:1000B000A0D80001D950090F6A6FDACF6BF099D838
:1000C000FFD71A0EE15C02E2E16AE552E16EE55209
:1000D000E7CFD9FF1200D9CFE6FFE1CFD9FF040E59
:1000E000E126DE6ADD6ADECF00F0DDCF01F0FD0E35
:1000F000DBCF02F0FE0EDBCF03F00250005C0350BA
:10010000015805E2DF2A010E01E3DB2AECD7020EDB
:10011000DB6A030EDB6A020EDBCF00F0030EDBCFDF
:1001200001F0C60E005C020E015806E2020EDB2A48
:10013000030E01E3DB2AEFD7040EE15C02E2E16A81
:10014000E552E16EE552E7CFD9FF1200380EE66EB8
:1001500026D8E5520F0EE66EE66ABDDFE552E5529F
:10016000010EE66E1CD8E5520F0EE66EE66AB3DFAE
:10017000E552E5520C0EE66E12D8E5520F0EE66E11
:10018000E66AA9DFE552E552800EE66E08D8E55230
:100190000F0EE66EE66A9FDFE552E5521200D9CFF8
:1001A000E6FFE1CFD9FFFE0EDB50836E8490849290
:1001B00084840F0EE66EE66A8EDFE552E552849483
:1001C000E552E7CFD9FF1200D9CFE6FFE1CFD9FF43
:1001D000FE0EDB50836E8480849284840F0EE66E64
:1001E000E66A79DFE552E5528494E552E7CFD9FF1C
:1001F0001200D9CFE6FFE1CFD9FF020EE126DE6A79
:10020000DD6ADE5000016A250F01E96EDD50000154
:100210006B210F01EA6EEF5019E0DE5000016A25F4
:100220000F01E96EDD5000016B210F01EA6EEF5006
:10023000E66ECADFE5520F0EE66EE66A4CDFE55267
:10024000E552DF2A010E01E3DB2ADBD7020EE15C77
:1002500002E2E16AE552E16EE552E7CFD9FF120012
:10026000060EF66E000EF76E000EF86E0001090025
:10027000F550656F0900F550666F03E1656701D0C1
:100280003DD00900F550606F0900F550616F09001D
:10029000F550626F09000900F550E96E0900F5504C
:1002A000EA6E090009000900F550636F0900F55076
:1002B000646F09000900F6CF67F0F7CF68F0F8CF58
:1002C00069F060C0F6FF61C0F7FF62C0F8FF00018F
:1002D000635302E1645307E00900F550EE6E6307D3
:1002E000F8E26407F9D767C0F6FF68C0F7FF69C096
:0E02F000F8FF00016507000E665BBFD7120025
:0202FE00000EF0
:10030000F36E00EE00F0080E01D81200EA6002D091
:0E031000EE6AFCD7F350E9601200EE6AFCD7EB
:02031E0013EEDC
:1003200000F023EE00F0F86A059C30EC01F09DEC43
:0A03300001F004EC00F0FBD712000E
:02033A001200AF
:020000040030CA
:010001000CF2
:010003001EDE
:010005008179
:010006008178
:00000001FF
